{
  "contractName": "BusTicket",
  "abi": [
    {
      "inputs": [],
      "stateMutability": "nonpayable",
      "type": "constructor"
    },
    {
      "inputs": [
        {
          "internalType": "address",
          "name": "sender",
          "type": "address"
        },
        {
          "internalType": "uint256",
          "name": "tokenId",
          "type": "uint256"
        },
        {
          "internalType": "address",
          "name": "owner",
          "type": "address"
        }
      ],
      "name": "ERC721IncorrectOwner",
      "type": "error"
    },
    {
      "inputs": [
        {
          "internalType": "address",
          "name": "operator",
          "type": "address"
        },
        {
          "internalType": "uint256",
          "name": "tokenId",
          "type": "uint256"
        }
      ],
      "name": "ERC721InsufficientApproval",
      "type": "error"
    },
    {
      "inputs": [
        {
          "internalType": "address",
          "name": "approver",
          "type": "address"
        }
      ],
      "name": "ERC721InvalidApprover",
      "type": "error"
    },
    {
      "inputs": [
        {
          "internalType": "address",
          "name": "operator",
          "type": "address"
        }
      ],
      "name": "ERC721InvalidOperator",
      "type": "error"
    },
    {
      "inputs": [
        {
          "internalType": "address",
          "name": "owner",
          "type": "address"
        }
      ],
      "name": "ERC721InvalidOwner",
      "type": "error"
    },
    {
      "inputs": [
        {
          "internalType": "address",
          "name": "receiver",
          "type": "address"
        }
      ],
      "name": "ERC721InvalidReceiver",
      "type": "error"
    },
    {
      "inputs": [
        {
          "internalType": "address",
          "name": "sender",
          "type": "address"
        }
      ],
      "name": "ERC721InvalidSender",
      "type": "error"
    },
    {
      "inputs": [
        {
          "internalType": "uint256",
          "name": "tokenId",
          "type": "uint256"
        }
      ],
      "name": "ERC721NonexistentToken",
      "type": "error"
    },
    {
      "anonymous": false,
      "inputs": [
        {
          "indexed": true,
          "internalType": "address",
          "name": "owner",
          "type": "address"
        },
        {
          "indexed": true,
          "internalType": "address",
          "name": "approved",
          "type": "address"
        },
        {
          "indexed": true,
          "internalType": "uint256",
          "name": "tokenId",
          "type": "uint256"
        }
      ],
      "name": "Approval",
      "type": "event"
    },
    {
      "anonymous": false,
      "inputs": [
        {
          "indexed": true,
          "internalType": "address",
          "name": "owner",
          "type": "address"
        },
        {
          "indexed": true,
          "internalType": "address",
          "name": "operator",
          "type": "address"
        },
        {
          "indexed": false,
          "internalType": "bool",
          "name": "approved",
          "type": "bool"
        }
      ],
      "name": "ApprovalForAll",
      "type": "event"
    },
    {
      "anonymous": false,
      "inputs": [
        {
          "indexed": true,
          "internalType": "address",
          "name": "from",
          "type": "address"
        },
        {
          "indexed": true,
          "internalType": "address",
          "name": "to",
          "type": "address"
        },
        {
          "indexed": true,
          "internalType": "uint256",
          "name": "tokenId",
          "type": "uint256"
        }
      ],
      "name": "Transfer",
      "type": "event"
    },
    {
      "inputs": [
        {
          "internalType": "address",
          "name": "to",
          "type": "address"
        },
        {
          "internalType": "uint256",
          "name": "tokenId",
          "type": "uint256"
        }
      ],
      "name": "approve",
      "outputs": [],
      "stateMutability": "nonpayable",
      "type": "function"
    },
    {
      "inputs": [
        {
          "internalType": "address",
          "name": "owner",
          "type": "address"
        }
      ],
      "name": "balanceOf",
      "outputs": [
        {
          "internalType": "uint256",
          "name": "",
          "type": "uint256"
        }
      ],
      "stateMutability": "view",
      "type": "function"
    },
    {
      "inputs": [
        {
          "internalType": "uint256",
          "name": "tokenId",
          "type": "uint256"
        }
      ],
      "name": "getApproved",
      "outputs": [
        {
          "internalType": "address",
          "name": "",
          "type": "address"
        }
      ],
      "stateMutability": "view",
      "type": "function"
    },
    {
      "inputs": [
        {
          "internalType": "address",
          "name": "owner",
          "type": "address"
        },
        {
          "internalType": "address",
          "name": "operator",
          "type": "address"
        }
      ],
      "name": "isApprovedForAll",
      "outputs": [
        {
          "internalType": "bool",
          "name": "",
          "type": "bool"
        }
      ],
      "stateMutability": "view",
      "type": "function"
    },
    {
      "inputs": [],
      "name": "name",
      "outputs": [
        {
          "internalType": "string",
          "name": "",
          "type": "string"
        }
      ],
      "stateMutability": "view",
      "type": "function"
    },
    {
      "inputs": [
        {
          "internalType": "uint256",
          "name": "tokenId",
          "type": "uint256"
        }
      ],
      "name": "ownerOf",
      "outputs": [
        {
          "internalType": "address",
          "name": "",
          "type": "address"
        }
      ],
      "stateMutability": "view",
      "type": "function"
    },
    {
      "inputs": [
        {
          "internalType": "address",
          "name": "from",
          "type": "address"
        },
        {
          "internalType": "address",
          "name": "to",
          "type": "address"
        },
        {
          "internalType": "uint256",
          "name": "tokenId",
          "type": "uint256"
        }
      ],
      "name": "safeTransferFrom",
      "outputs": [],
      "stateMutability": "nonpayable",
      "type": "function"
    },
    {
      "inputs": [
        {
          "internalType": "address",
          "name": "from",
          "type": "address"
        },
        {
          "internalType": "address",
          "name": "to",
          "type": "address"
        },
        {
          "internalType": "uint256",
          "name": "tokenId",
          "type": "uint256"
        },
        {
          "internalType": "bytes",
          "name": "data",
          "type": "bytes"
        }
      ],
      "name": "safeTransferFrom",
      "outputs": [],
      "stateMutability": "nonpayable",
      "type": "function"
    },
    {
      "inputs": [
        {
          "internalType": "address",
          "name": "operator",
          "type": "address"
        },
        {
          "internalType": "bool",
          "name": "approved",
          "type": "bool"
        }
      ],
      "name": "setApprovalForAll",
      "outputs": [],
      "stateMutability": "nonpayable",
      "type": "function"
    },
    {
      "inputs": [
        {
          "internalType": "bytes4",
          "name": "interfaceId",
          "type": "bytes4"
        }
      ],
      "name": "supportsInterface",
      "outputs": [
        {
          "internalType": "bool",
          "name": "",
          "type": "bool"
        }
      ],
      "stateMutability": "view",
      "type": "function"
    },
    {
      "inputs": [],
      "name": "symbol",
      "outputs": [
        {
          "internalType": "string",
          "name": "",
          "type": "string"
        }
      ],
      "stateMutability": "view",
      "type": "function"
    },
    {
      "inputs": [
        {
          "internalType": "uint256",
          "name": "",
          "type": "uint256"
        }
      ],
      "name": "tickets",
      "outputs": [
        {
          "internalType": "string",
          "name": "rute",
          "type": "string"
        },
        {
          "internalType": "uint256",
          "name": "harga",
          "type": "uint256"
        },
        {
          "internalType": "uint256",
          "name": "waktuBeli",
          "type": "uint256"
        }
      ],
      "stateMutability": "view",
      "type": "function"
    },
    {
      "inputs": [
        {
          "internalType": "uint256",
          "name": "tokenId",
          "type": "uint256"
        }
      ],
      "name": "tokenURI",
      "outputs": [
        {
          "internalType": "string",
          "name": "",
          "type": "string"
        }
      ],
      "stateMutability": "view",
      "type": "function"
    },
    {
      "inputs": [
        {
          "internalType": "address",
          "name": "from",
          "type": "address"
        },
        {
          "internalType": "address",
          "name": "to",
          "type": "address"
        },
        {
          "internalType": "uint256",
          "name": "tokenId",
          "type": "uint256"
        }
      ],
      "name": "transferFrom",
      "outputs": [],
      "stateMutability": "nonpayable",
      "type": "function"
    },
    {
      "inputs": [
        {
          "internalType": "address",
          "name": "penumpang",
          "type": "address"
        },
        {
          "internalType": "string",
          "name": "rute",
          "type": "string"
        },
        {
          "internalType": "uint256",
          "name": "harga",
          "type": "uint256"
        }
      ],
      "name": "mintTicket",
      "outputs": [
        {
          "internalType": "uint256",
          "name": "",
          "type": "uint256"
        }
      ],
      "stateMutability": "nonpayable",
      "type": "function"
    }
  ],
  "bytecode": "0x60806040523480156200001157600080fd5b506040518060400160405280600e81526020016d14dd5b5d5d109d5cd51a58dad95d60921b8152506040518060400160405280600381526020016214d09560ea1b815250816000908162000066919062000128565b50600162000075828262000128565b5050600160065550620001f4565b634e487b7160e01b600052604160045260246000fd5b600181811c90821680620000ae57607f821691505b602082108103620000cf57634e487b7160e01b600052602260045260246000fd5b50919050565b601f8211156200012357600081815260208120601f850160051c81016020861015620000fe5750805b601f850160051c820191505b818110156200011f578281556001016200010a565b5050505b505050565b81516001600160401b0381111562000144576200014462000083565b6200015c8162000155845462000099565b84620000d5565b602080601f8311600181146200019457600084156200017b5750858301515b600019600386901b1c1916600185901b1785556200011f565b600085815260208120601f198616915b82811015620001c557888601518255948401946001909101908401620001a4565b5085821015620001e45787850151600019600388901b60f8161c191681555b5050505050600190811b01905550565b61129680620002046000396000f3fe608060405234801561001057600080fd5b50600436106100f55760003560e01c80636352211e11610097578063b88d4fde11610066578063b88d4fde1461020e578063c87b56dd14610221578063cf7a314114610234578063e985e9c51461024757600080fd5b80636352211e146101bf57806370a08231146101d257806395d89b41146101f3578063a22cb465146101fb57600080fd5b8063095ea7b3116100d3578063095ea7b31461016257806323b872dd1461017757806342842e0e1461018a57806350b447121461019d57600080fd5b806301ffc9a7146100fa57806306fdde0314610122578063081812fc14610137575b600080fd5b61010d610108366004610d33565b61025a565b60405190151581526020015b60405180910390f35b61012a6102ac565b6040516101199190610da0565b61014a610145366004610db3565b61033e565b6040516001600160a01b039091168152602001610119565b610175610170366004610de8565b610367565b005b610175610185366004610e12565b610376565b610175610198366004610e12565b610406565b6101b06101ab366004610db3565b610426565b60405161011993929190610e4e565b61014a6101cd366004610db3565b6104d0565b6101e56101e0366004610e73565b6104db565b604051908152602001610119565b61012a610523565b610175610209366004610e8e565b610532565b61017561021c366004610f56565b61053d565b61012a61022f366004610db3565b610555565b6101e5610242366004610fd2565b6105ca565b61010d61025536600461103d565b610643565b60006001600160e01b031982166380ac58cd60e01b148061028b57506001600160e01b03198216635b5e139f60e01b145b806102a657506301ffc9a760e01b6001600160e01b03198316145b92915050565b6060600080546102bb90611070565b80601f01602080910402602001604051908101604052809291908181526020018280546102e790611070565b80156103345780601f1061030957610100808354040283529160200191610334565b820191906000526020600020905b81548152906001019060200180831161031757829003601f168201915b5050505050905090565b600061034982610671565b506000828152600460205260409020546001600160a01b03166102a6565b6103728282336106aa565b5050565b6001600160a01b0382166103a557604051633250574960e11b8152600060048201526024015b60405180910390fd5b60006103b28383336106b7565b9050836001600160a01b0316816001600160a01b031614610400576040516364283d7b60e01b81526001600160a01b038086166004830152602482018490528216604482015260640161039c565b50505050565b6104218383836040518060200160405280600081525061053d565b505050565b60076020526000908152604090208054819061044190611070565b80601f016020809104026020016040519081016040528092919081815260200182805461046d90611070565b80156104ba5780601f1061048f576101008083540402835291602001916104ba565b820191906000526020600020905b81548152906001019060200180831161049d57829003601f168201915b5050505050908060010154908060020154905083565b60006102a682610671565b60006001600160a01b038216610507576040516322718ad960e21b81526000600482015260240161039c565b506001600160a01b031660009081526003602052604090205490565b6060600180546102bb90611070565b6103723383836107b0565b610548848484610376565b610400338585858561084f565b606061056082610671565b50600061057860408051602081019091526000815290565b9050600081511161059857604051806020016040528060008152506105c3565b806105a28461097a565b6040516020016105b39291906110aa565b6040516020818303038152906040525b9392505050565b60068054600091829190826105de836110d9565b9190505590506105ee8582610a0d565b60408051606081018252858152602080820186905242828401526000848152600790915291909120815181906106249082611146565b5060208201516001820155604090910151600290910155949350505050565b6001600160a01b03918216600090815260056020908152604080832093909416825291909152205460ff1690565b6000818152600260205260408120546001600160a01b0316806102a657604051637e27328960e01b81526004810184905260240161039c565b6104218383836001610a72565b6000828152600260205260408120546001600160a01b03908116908316156106e4576106e4818486610b78565b6001600160a01b0381161561072257610701600085600080610a72565b6001600160a01b038116600090815260036020526040902080546000190190555b6001600160a01b03851615610751576001600160a01b0385166000908152600360205260409020805460010190555b60008481526002602052604080822080546001600160a01b0319166001600160a01b0389811691821790925591518793918516917fddf252ad1be2c89b69c2b068fc378daa952ba7f163c4a11628f55a4df523b3ef91a4949350505050565b6001600160a01b0382166107e257604051630b61174360e31b81526001600160a01b038316600482015260240161039c565b6001600160a01b03838116600081815260056020908152604080832094871680845294825291829020805460ff191686151590811790915591519182527f17307eab39ab6107e8899845ad3d59bd9653f200f220920489ca2b5937696c31910160405180910390a3505050565b6001600160a01b0383163b1561097357604051630a85bd0160e11b81526001600160a01b0384169063150b7a0290610891908890889087908790600401611206565b6020604051808303816000875af19250505080156108cc575060408051601f3d908101601f191682019092526108c991810190611243565b60015b610935573d8080156108fa576040519150601f19603f3d011682016040523d82523d6000602084013e6108ff565b606091505b50805160000361092d57604051633250574960e11b81526001600160a01b038516600482015260240161039c565b805160208201fd5b6001600160e01b03198116630a85bd0160e11b1461097157604051633250574960e11b81526001600160a01b038516600482015260240161039c565b505b5050505050565b6060600061098783610bdc565b600101905060008167ffffffffffffffff8111156109a7576109a7610eca565b6040519080825280601f01601f1916602001820160405280156109d1576020820181803683370190505b5090508181016020015b600019016f181899199a1a9b1b9c1cb0b131b232b360811b600a86061a8153600a85049450846109db57509392505050565b6001600160a01b038216610a3757604051633250574960e11b81526000600482015260240161039c565b6000610a45838360006106b7565b90506001600160a01b03811615610421576040516339e3563760e11b81526000600482015260240161039c565b8080610a8657506001600160a01b03821615155b15610b48576000610a9684610671565b90506001600160a01b03831615801590610ac25750826001600160a01b0316816001600160a01b031614155b8015610ad55750610ad38184610643565b155b15610afe5760405163a9fbf51f60e01b81526001600160a01b038416600482015260240161039c565b8115610b465783856001600160a01b0316826001600160a01b03167f8c5be1e5ebec7d5bd14f71427d1e84f3dd0314c0f7b2291e5b200ac8c7c3b92560405160405180910390a45b505b5050600090815260046020526040902080546001600160a01b0319166001600160a01b0392909216919091179055565b610b83838383610cb4565b610421576001600160a01b038316610bb157604051637e27328960e01b81526004810182905260240161039c565b60405163177e802f60e01b81526001600160a01b03831660048201526024810182905260440161039c565b60008072184f03e93ff9f4daa797ed6e38ed64bf6a1f0160401b8310610c1b5772184f03e93ff9f4daa797ed6e38ed64bf6a1f0160401b830492506040015b6d04ee2d6d415b85acef81000000008310610c47576d04ee2d6d415b85acef8100000000830492506020015b662386f26fc100008310610c6557662386f26fc10000830492506010015b6305f5e1008310610c7d576305f5e100830492506008015b6127108310610c9157612710830492506004015b60648310610ca3576064830492506002015b600a83106102a65760010192915050565b60006001600160a01b03831615801590610d125750826001600160a01b0316846001600160a01b03161480610cee5750610cee8484610643565b80610d1257506000828152600460205260409020546001600160a01b038481169116145b949350505050565b6001600160e01b031981168114610d3057600080fd5b50565b600060208284031215610d4557600080fd5b81356105c381610d1a565b60005b83811015610d6b578181015183820152602001610d53565b50506000910152565b60008151808452610d8c816020860160208601610d50565b601f01601f19169290920160200192915050565b6020815260006105c36020830184610d74565b600060208284031215610dc557600080fd5b5035919050565b80356001600160a01b0381168114610de357600080fd5b919050565b60008060408385031215610dfb57600080fd5b610e0483610dcc565b946020939093013593505050565b600080600060608486031215610e2757600080fd5b610e3084610dcc565b9250610e3e60208501610dcc565b9150604084013590509250925092565b606081526000610e616060830186610d74565b60208301949094525060400152919050565b600060208284031215610e8557600080fd5b6105c382610dcc565b60008060408385031215610ea157600080fd5b610eaa83610dcc565b915060208301358015158114610ebf57600080fd5b809150509250929050565b634e487b7160e01b600052604160045260246000fd5b600067ffffffffffffffff80841115610efb57610efb610eca565b604051601f8501601f19908116603f01168101908282118183101715610f2357610f23610eca565b81604052809350858152868686011115610f3c57600080fd5b858560208301376000602087830101525050509392505050565b60008060008060808587031215610f6c57600080fd5b610f7585610dcc565b9350610f8360208601610dcc565b925060408501359150606085013567ffffffffffffffff811115610fa657600080fd5b8501601f81018713610fb757600080fd5b610fc687823560208401610ee0565b91505092959194509250565b600080600060608486031215610fe757600080fd5b610ff084610dcc565b9250602084013567ffffffffffffffff81111561100c57600080fd5b8401601f8101861361101d57600080fd5b61102c86823560208401610ee0565b925050604084013590509250925092565b6000806040838503121561105057600080fd5b61105983610dcc565b915061106760208401610dcc565b90509250929050565b600181811c9082168061108457607f821691505b6020821081036110a457634e487b7160e01b600052602260045260246000fd5b50919050565b600083516110bc818460208801610d50565b8351908301906110d0818360208801610d50565b01949350505050565b6000600182016110f957634e487b7160e01b600052601160045260246000fd5b5060010190565b601f82111561042157600081815260208120601f850160051c810160208610156111275750805b601f850160051c820191505b8181101561097157828155600101611133565b815167ffffffffffffffff81111561116057611160610eca565b6111748161116e8454611070565b84611100565b602080601f8311600181146111a957600084156111915750858301515b600019600386901b1c1916600185901b178555610971565b600085815260208120601f198616915b828110156111d8578886015182559484019460019091019084016111b9565b50858210156111f65787850151600019600388901b60f8161c191681555b5050505050600190811b01905550565b6001600160a01b038581168252841660208201526040810183905260806060820181905260009061123990830184610d74565b9695505050505050565b60006020828403121561125557600080fd5b81516105c381610d1a56fea26469706673582212204868b48c6a76b25edcbb793b322d5bbfd2242ea0a769990da05d8686340fcd3b64736f6c63430008140033",
  "immutableReferences": {},
  "source": "// SPDX-License-Identifier: MIT\r\npragma solidity ^0.8.20;\r\n\r\nimport \"@openzeppelin/contracts/token/ERC721/ERC721.sol\";\r\n\r\ncontract BusTicket is ERC721 {\r\n    // Kita ganti Counters dengan variabel manual (lebih hemat gas)\r\n    uint256 private _nextTokenId;\r\n\r\n    struct TicketInfo {\r\n        string rute;\r\n        uint256 harga;\r\n        uint256 waktuBeli;\r\n    }\r\n\r\n    mapping(uint256 => TicketInfo) public tickets;\r\n\r\n    constructor() ERC721(\"SumutBusTicket\", \"SBT\") {\r\n        // Mulai ID dari 1 supaya terlihat rapi\r\n        _nextTokenId = 1; \r\n    }\r\n\r\n    function mintTicket(address penumpang, string memory rute, uint256 harga)\r\n        public\r\n        returns (uint256)\r\n    {\r\n        uint256 tokenId = _nextTokenId++;\r\n\r\n        _mint(penumpang, tokenId);\r\n        tickets[tokenId] = TicketInfo(rute, harga, block.timestamp);\r\n\r\n        return tokenId;\r\n    }\r\n}",
  "sourcePath": "D:\\sumut-bus-ticketing\\blockchain\\contracts\\BusTicket.sol",
  "compiler": {
    "name": "solc",
    "version": "0.8.20+commit.a1b79de6.Emscripten.clang"
  },
  "schemaVersion": "3.4.16",
  "updatedAt": "2025-12-04T22:55:06.761Z",
  "devdoc": {
    "errors": {
      "ERC721IncorrectOwner(address,uint256,address)": [
        {
          "details": "Indicates an error related to the ownership over a particular token. Used in transfers.",
          "params": {
            "owner": "Address of the current owner of a token.",
            "sender": "Address whose tokens are being transferred.",
            "tokenId": "Identifier number of a token."
          }
        }
      ],
      "ERC721InsufficientApproval(address,uint256)": [
        {
          "details": "Indicates a failure with the `operator`s approval. Used in transfers.",
          "params": {
            "operator": "Address that may be allowed to operate on tokens without being their owner.",
            "tokenId": "Identifier number of a token."
          }
        }
      ],
      "ERC721InvalidApprover(address)": [
        {
          "details": "Indicates a failure with the `approver` of a token to be approved. Used in approvals.",
          "params": {
            "approver": "Address initiating an approval operation."
          }
        }
      ],
      "ERC721InvalidOperator(address)": [
        {
          "details": "Indicates a failure with the `operator` to be approved. Used in approvals.",
          "params": {
            "operator": "Address that may be allowed to operate on tokens without being their owner."
          }
        }
      ],
      "ERC721InvalidOwner(address)": [
        {
          "details": "Indicates that an address can't be an owner. For example, `address(0)` is a forbidden owner in ERC-20. Used in balance queries.",
          "params": {
            "owner": "Address of the current owner of a token."
          }
        }
      ],
      "ERC721InvalidReceiver(address)": [
        {
          "details": "Indicates a failure with the token `receiver`. Used in transfers.",
          "params": {
            "receiver": "Address to which tokens are being transferred."
          }
        }
      ],
      "ERC721InvalidSender(address)": [
        {
          "details": "Indicates a failure with the token `sender`. Used in transfers.",
          "params": {
            "sender": "Address whose tokens are being transferred."
          }
        }
      ],
      "ERC721NonexistentToken(uint256)": [
        {
          "details": "Indicates a `tokenId` whose `owner` is the zero address.",
          "params": {
            "tokenId": "Identifier number of a token."
          }
        }
      ]
    },
    "events": {
      "Approval(address,address,uint256)": {
        "details": "Emitted when `owner` enables `approved` to manage the `tokenId` token."
      },
      "ApprovalForAll(address,address,bool)": {
        "details": "Emitted when `owner` enables or disables (`approved`) `operator` to manage all of its assets."
      },
      "Transfer(address,address,uint256)": {
        "details": "Emitted when `tokenId` token is transferred from `from` to `to`."
      }
    },
    "kind": "dev",
    "methods": {
      "approve(address,uint256)": {
        "details": "Gives permission to `to` to transfer `tokenId` token to another account. The approval is cleared when the token is transferred. Only a single account can be approved at a time, so approving the zero address clears previous approvals. Requirements: - The caller must own the token or be an approved operator. - `tokenId` must exist. Emits an {Approval} event."
      },
      "balanceOf(address)": {
        "details": "Returns the number of tokens in ``owner``'s account."
      },
      "getApproved(uint256)": {
        "details": "Returns the account approved for `tokenId` token. Requirements: - `tokenId` must exist."
      },
      "isApprovedForAll(address,address)": {
        "details": "Returns if the `operator` is allowed to manage all of the assets of `owner`. See {setApprovalForAll}"
      },
      "name()": {
        "details": "Returns the token collection name."
      },
      "ownerOf(uint256)": {
        "details": "Returns the owner of the `tokenId` token. Requirements: - `tokenId` must exist."
      },
      "safeTransferFrom(address,address,uint256)": {
        "details": "Safely transfers `tokenId` token from `from` to `to`, checking first that contract recipients are aware of the ERC-721 protocol to prevent tokens from being forever locked. Requirements: - `from` cannot be the zero address. - `to` cannot be the zero address. - `tokenId` token must exist and be owned by `from`. - If the caller is not `from`, it must have been allowed to move this token by either {approve} or   {setApprovalForAll}. - If `to` refers to a smart contract, it must implement {IERC721Receiver-onERC721Received}, which is called upon   a safe transfer. Emits a {Transfer} event."
      },
      "safeTransferFrom(address,address,uint256,bytes)": {
        "details": "Safely transfers `tokenId` token from `from` to `to`. Requirements: - `from` cannot be the zero address. - `to` cannot be the zero address. - `tokenId` token must exist and be owned by `from`. - If the caller is not `from`, it must be approved to move this token by either {approve} or {setApprovalForAll}. - If `to` refers to a smart contract, it must implement {IERC721Receiver-onERC721Received}, which is called upon   a safe transfer. Emits a {Transfer} event."
      },
      "setApprovalForAll(address,bool)": {
        "details": "Approve or remove `operator` as an operator for the caller. Operators can call {transferFrom} or {safeTransferFrom} for any token owned by the caller. Requirements: - The `operator` cannot be the address zero. Emits an {ApprovalForAll} event."
      },
      "supportsInterface(bytes4)": {
        "details": "Returns true if this contract implements the interface defined by `interfaceId`. See the corresponding https://eips.ethereum.org/EIPS/eip-165#how-interfaces-are-identified[ERC section] to learn more about how these ids are created. This function call must use less than 30 000 gas."
      },
      "symbol()": {
        "details": "Returns the token collection symbol."
      },
      "tokenURI(uint256)": {
        "details": "Returns the Uniform Resource Identifier (URI) for `tokenId` token."
      },
      "transferFrom(address,address,uint256)": {
        "details": "Transfers `tokenId` token from `from` to `to`. WARNING: Note that the caller is responsible to confirm that the recipient is capable of receiving ERC-721 or else they may be permanently lost. Usage of {safeTransferFrom} prevents loss, though the caller must understand this adds an external call which potentially creates a reentrancy vulnerability. Requirements: - `from` cannot be the zero address. - `to` cannot be the zero address. - `tokenId` token must be owned by `from`. - If the caller is not `from`, it must be approved to move this token by either {approve} or {setApprovalForAll}. Emits a {Transfer} event."
      }
    },
    "version": 1
  },
  "userdoc": {
    "kind": "user",
    "methods": {},
    "version": 1
  }
}